:020000040800F2
:1000000050270020050300086B6C000855590008B4
:10001000696C00088B0A00087D9C00080000000045
:1000200000000000000000000000000099750008BA
:10003000B50C000800000000B1730008BD76000890
:100040001F0300081F0300081F0300081F03000808
:100050001F0300081F0300081F0300081F030008F8
:100060001F0300081F0300081F030008290B0008D6
:10007000350B0008410B00084D0B00081F0300085A
:100080001F0300081F030008450800081F0300089D
:10009000A59B0008F10C0008FD0C00081F030008D8
:1000A0001F0300083D7700081F0300081F03000816
:1000B0001F030008497700081F0300081F030008FA
:1000C0001F0300081F0300081F0300081F03000888
:1000D0001F0300081F0300081F03000861850008B4
:1000E0001F0300081F0300081F0300081F03000868
:1000F0001F0300081F0300081F0300081F03000858
:100100001F0300081F0300081F0300081F03000847
:100110001F0300081F0300081F0300081F03000837
:100120001F0300081F0300081F0300081F03000827
:100130001F0300081F0300081F0300081F03000817
:100140001F0300081F0300081F0300081F03000807
:100150001F0300081F0300081F0300081F030008F7
:100160001F0300081F0300081F0300081F030008E7
:100170001F0300081F0300081F0300081F030008D7
:100180001F0300081F0300081F0300081F030008C7
:100190001F030008000000001F0300081F030008E1
:1001A0001F0300081F0300081F0300081F030008A7
:1001B0001F0300081F0300081F0300081F03000897
:1001C0001F0300081F0300081F0300081F03000887
:1001D0001F0300081F030008DFF80CD000F0F4FA3A
:1001E00000480047A9A50008502700204FF0A04173
:1001F000D1F8882092B20280D1F88430438051F83F
:10020000803F8380D1F800110182304900EE102A2E
:100210004A89F8EE400A00EE102A2E4AB8EE400A4B
:1002200070EEC00A9FED2A0A60EE800AC2ED010A54
:10023000438800EE903A8B89B8EE601A00EE903A4F
:10024000F8EE600A71EE600A60EE800AC2ED020A02
:10025000808800EE900AC889B8EE601A00EE900A15
:10026000F8EE600A71EE600A20EE800A82ED030A61
:1002700070471648DFED180A008A00EE100A15488C
:10028000B8EE400A20EE200A10EE101A80ED040AA3
:10029000B1F17E5F17DDB3EE081A104AC1EE000A15
:1002A00010EE901AC0ED050A914203DD9FED0C0A95
:1002B00080ED050A0B4A4169914203DA9FED0A0A73
:1002C00080ED050A7047B7EE000AF9E758220020D2
:1002D0000000043CF4210020CDCC593C6666A63FCA
:1002E0006666A63F3333333F3333333F10B504489C
:1002F000FFF77CFFFFF7BDFFBDE8104000F08ABDAF
:10030000582200200648804706480047FEE7FEE7DF
:10031000FEE7FEE7FEE7FEE7FEE7FEE7FEE7FEE7B5
:100320002D770008D90100082DE9F05F054600206F
:1003300092469B4688460646814640241BE0284656
:1003400041464746224600F089F953465A46C01AAC
:10035000914110D311461846224600F070F92D1A2B
:1003600067EB01084F4622460120002100F067F9A3
:1003700017EB00094E41201EA4F10104DFDC4846C2
:1003800031462A464346BDE8F09FD2B201E000F86C
:10039000012B491EFBD270470022F6E710B5134629
:1003A0000A4604461946FFF7F0FF204610BD2DE926
:1003B000FE4F804681EA0300C00F0C46009021F0FA
:1003C000004123F00045B8EB0200A94105D24046A8
:1003D000214690461C460B46024623F0004010433F
:1003E00047D0270DC7F30A00C3F30A510290401A01
:1003F000019040286BDAC3F3130040F4801B00988F
:10040000924620B10023D2EB030A63EB0B0B019859
:100410005946C0F14002504600F011F906460D461B
:1004200050465946019A00F029F910EB0800614145
:10043000002487EA115284EAE7731A4340D0009AF5
:1004400062B3019A012A4FEA075215DC001B61EBE7
:1004500002014FF0004202EA0752CDE90042001CBF
:1004600041F5801132462B4600F060F903B0BDE83B
:10047000F08F40462146F9E7001B61EB0201001CAA
:1004800041F5801300185B412018A2F5001747EBD7
:10049000030140EAD570B6196D4111E06D084FEACD
:1004A000360645EAC0754FEA0752001B61EB0201B0
:1004B000001C41F5801149084FEA300000195141F4
:1004C00032462B4603B0BDE8F04F00F020B900984B
:1004D000012240000023D0EB020263EBE07300989E
:1004E00021464FEAE074B8EB000061EB0401E9E754
:1004F00083F000435BE781F0004158E72DE9FE4FB0
:1005000081EA030404F0004421F0004100944FF01C
:10051000000B23F0004350EA01045ED052EA0304CA
:100520005BD0C3F30A54C1F30A552C44A4F2F3344C
:100530000194A0FB0254C1F3130141F48011C3F3F1
:10054000130343F4801301FB024400FB034E840AAF
:10055000970A44EA815447EA8357A4FB0768029547
:100560008D0A05FB07854FEA932C04FB0C542705E5
:10057000029D4FEA065847EA1637B5EB08056EEBC1
:10058000070C870E920E47EA811742EA8312A7FBF7
:100590000201B6EB0B0164EB00042B0D43EA0C33B4
:1005A0005E1844EB1C50DA465146E7FB0201C5F3E6
:1005B00013044FEA0B3343EA14534FEA0432019C0D
:1005C00043EA0603A4F10C040294009CCDE900B4B4
:1005D00000F0ACF803B0BDE8F08F00200146F9E769
:1005E00000F0004230F000400AD0C10D01F560710A
:1005F000C0F3160042EA0151C20840071143704798
:1006000000200146704701F0004330B421F0004162
:1006100050EA010206D00A0DA2F56072C1F313017F
:10062000002A02DC30BC00207047440F44EAC104B9
:10063000C100E01830BC00EBC25000F031B8202AF5
:1006400004DB203A00FA02F1002070479140C2F129
:10065000200320FA03F3194390407047202A04DB5B
:10066000203A21FA02F00021704721FA02F3D0402B
:10067000C2F120029140084319467047202A06DB48
:10068000CB17203A41FA02F043EAE07306E041FA60
:1006900002F3D040C2F1200291400843194670474E
:1006A0000029A8BF7047401C490008BF20F0010086
:1006B000704710B4B0FA80FC00FA0CF050EA010464
:1006C00004BF10BC704749B1CCF1200421FA04F4F6
:1006D00011FA0CF118BF012121430843A3EB0C01CF
:1006E000CB1D4FEA00614FEA102042BF002010BC32
:1006F000704700EBC35010440029A4BF10BC7047E2
:10070000401C490008BF20F0010010BC704710B524
:10071000141E73F1000408DA401C41F10001921824
:100720005B411A4301D120F0010010BD2DE9F04DCD
:1007300092469B4611B1B1FA81F202E0B0FA80F222
:1007400020329046FFF77BFF04460F4640EA0A003E
:1007500041EA0B0153465A46084313D0114653EA67
:10076000010019D0C8F140025046FFF777FF054657
:100770000E46504659464246FFF761FF084305D0F2
:10078000012004E020463946BDE8F08D00200543F5
:1007900046EAE0762C4337430A986305E40AA0EB67
:1007A00008000022FD0A44EA47540A3002D500201E
:1007B0000146E9E7010510196941DDE9084500191D
:1007C0006941BDE8F04DA2E7064C074D06E0E06840
:1007D00040F0010394E8070098471034AC42F6D388
:1007E000FFF7FEFC18F1000838F1000870B58C180E
:1007F00010F8015B15F0070301D110F8013B2A1135
:1008000006D110F8012B03E010F8016B01F8016B21
:100810005B1EF9D12B0705D40023521E0DD401F81D
:10082000013BFAE710F8013BCB1A921C03E013F8E6
:10083000015B01F8015B521EF9D5A142D8D300201B
:1008400070BD000010B5044801F04EFBBDE810403B
:10085000024801F049BB0000DC01002048020020F2
:1008600010B5846AE16D11F0500F06D0E16DC90634
:1008700025D5204601F036FB10BDE06D40F4007038
:10088000E06520680168090716D505F067FE78B1B4
:100890002068C068800400280ADBE06D20F48070C6
:1008A000E065E06DC00403D4E06D40F00100E06558
:1008B000204601F015FB10BDC0688007EBE7616DB5
:1008C000496BBDE81040084710B5806AC16D41F022
:1008D0004001C165016E41F00401016601F002FBB7
:1008E00010BD10B5806A01F0FCFA10BD70B5044669
:1008F000006881688268C1F3400112F0010F28D0BE
:1009000039BB816801F00D01012914D18168124AB7
:100910001140891C816021680320086002F090FB6F
:10092000054612E002F08CFB401B02280DD920681E
:100930008068C00709D0E06D40F01000E065206ECF
:1009400040F001002066012070BD20688068C0076B
:10095000E8D1002070BD0000C0FFFF7FF8B504465D
:10096000002000902068816811F0010F4AD1816851
:10097000254A114237D18168D5432940491C8160FD
:100980002068B0F1A04F02D02049884201D1204810
:1009900000E02048806800F0E07000020DD51E489D
:1009A0001E490068B0FBF1F0401C00EB40008000E5
:1009B00000E0401E00900028FBD102F041FB0646FB
:1009C0001BE0816811F0010F03D181682940491CA7
:1009D000816002F035FB801B02280ED92068006878
:1009E000C043C00709D0E06D40F01000E065206E04
:1009F00040F0010020660120F8BD20680168C9436D
:100A0000C907DED10020F8BD3F0000800001005082
:100A1000000300500007005084000020400D030038
:100A200010B506F023F9144ADFED140A144992EDCB
:100A30000C0A20EE200ABDEEC00A10EE100A00B229
:100A4000A1F84600B0F5805F02DBA0F5805003E01E
:100A5000002803DA00F58050A1F8460092ED0D0A57
:100A6000DFED080A20EE200AF3EE0A0A80EE201AD3
:100A700081ED0C1A10BD0000FC22002083F92244F5
:100A80000C220020000070427047FEE700207047F3
:100A90000020704710B500220449054807F0E9FE20
:100AA0000449034807F0DCFE002010BDF4170020C5
:100AB000240B0020F40F002010B50146034807F076
:100AC000CFFE024807F094FE002010BD240B00204A
:100AD00000207047094A10B5D2F8BC22D2F814227F
:100AE0000AB1012010BD0A460146044807F0C1FEC4
:100AF000BDE81040014807F026BF0000240B00208D
:100B000090ED000AB0EE001A80ED030AD0ED010A64
:100B100000EE810ADFED030A20EE200A80ED040AD0
:100B2000704700003ACD133F014801F02BBE000092
:100B300068050020014801F025BE0000C80500201E
:100B4000014801F01FBE000014030020014801F01D
:100B500019BE0000B402002010B501680E4CCAB2E4
:100B60001423083AA14203D2B2FBF3F20B4904E08A
:100B7000B2FBF3F2094920310832436C02F01F0244
:100B800023F003031944816404498031C1640121C5
:100B90009140016510BD00000804024000080240B9
:100BA0000179084A01F07F0102EB81024265054AA2
:100BB0004432491E826501F01F0201219140C16546
:100BC00070470000FC08024030B5D0E9134565606D
:100BD000446D14B1D0E91645656090F8444004F0C6
:100BE0001F050124AC40056C6C6004686360836879
:100BF000102B036803D099600068C26030BD9A6012
:100C00000068C16030BD000030B5234A234B244D3D
:100C100054689FED240A9C4202DDF7EE000A06E0CC
:100C2000AC4202D9FFEE000A01E0F0EE400A9468FF
:100C30009C4202DDB7EE001A06E0AC4202D9BFEEDC
:100C4000001A01E0B0EE401AD2689A4202DDB7EE17
:100C5000000A03E0AA4201D9BFEE000AF6EE001A2C
:100C6000134A41EE610A40EE610ADFED0F1A31EEE0
:100C7000400A92ED001A60EEA10ADFED0C1A71EE47
:100C8000200A21EE800AC0ED000AD2ED010A30EE02
:100C9000800A81ED000A30BDF42100200AD7233CF0
:100CA0000AD723BC00000000CECC4C3EAE5C313EE7
:100CB000C8210020704772B6FEE700002DE9F04120
:100CC00000240A4D274600BF05EBC40635F8340062
:100CD0007188814203D310B1706880477780641CAB
:100CE000A4B2052CF0D3BDE8F08100001020002054
:100CF000014801F062BE000074030020014801F0C9
:100D00005CBE000074030020134810B5134990ED39
:100D1000000A81ED030A90ED010A01F11C0081ED4A
:100D2000040A90ED010A81ED050A90ED020A1C38D3
:100D300081ED060A04F00FFE094891ED000A80EDEE
:100D4000000A91ED010A80ED010A09F083FCBDE87B
:100D5000104006F025BB00000C220020942100204A
:100D6000C821002024489FED230AB3EE041A80ED29
:100D7000000A9FED220AF2EE040A80ED010A9FEDBF
:100D8000200ADFED211A80ED020A80ED051A9FEDA1
:100D90001D0AC0ED040A80ED060A80ED070A80ED09
:100DA000080AC0ED0A1ADFED191A0021C0ED031A76
:100DB00080ED0B0A80ED0C0A80ED0D0A80ED111A12
:100DC000C0ED120A80F84C10114880ED000A80ED49
:100DD000010A083080ED000A80ED010A083080ED3C
:100DE000000A80ED010A1C3880ED010A80ED020A3C
:100DF000017070474694F63BFC220020ACC5A73733
:100E0000556AF63B0000000017B7513800409C457A
:100E1000C00100202DE9F04104F03CFE674C684A17
:100E200094F849001178884201D0012100E00021A6
:100E3000107005287ED2DFE800F0BF030DA6AB00DE
:100E400008F0E8FE06F000FC04F09AFDBDE8F04171
:100E5000FFF75ABF00296ED05A4890ED000AD0ED36
:100E6000010A20EE000A00EEA00A09F09FF9564898
:100E7000D0ED020A9FED551A002560EE812ADFEDC4
:100E8000541A5449544AB6EE001ADFED540AF4EEEF
:100E9000C02AB3EE0A2A6426F1EE10FA504B4BDD5D
:100EA00094ED0E0A80ED0C0A94ED0D0ADFED4D2A4B
:100EB00090ED0A3A012760EE222A62EE832AC0ED05
:100EC000082AC0ED092AC0ED072AC0ED061A80EDF8
:100ED0000D0AF3EE042AC0ED112AF2EE042AC0ED49
:100EE000122AF1EE002AC0ED052AF7EE002AC0ED25
:100EF000042A80F84C70D4ED022A20EE200A62EE1B
:100F0000812AC1ED0B2AC1ED0A2AC1ED032AC2EDE7
:100F10000B1AC2ED0A1AC2ED031AD4ED0F1A61EED4
:100F2000A01AC0EE020AC1EE822AC3ED002AC3ED68
:100F3000010A21E040E023E090ED0D0A20EE200AB6
:100F4000C0EE022A94ED0F0A20EE200AC0EE020A3B
:100F500094ED020A20EE010A81ED0B0A81ED0A0AE6
:100F600081ED030AC2ED0B1AC2ED0A1AC2ED031A93
:100F7000C3ED000AC3ED012A83ED021AC3E903564B
:100F8000FFF74EFD5CE7BDE8F0410C4808F078BE85
:100F90000A4808F075FE1448144990ED010A81EDE5
:100FA000000A90ED020A084681ED010AFFF7A8FD4C
:100FB000BDE8F041FFF734BDBDE8F0810C22002010
:100FC000B1010020D0010020FC2200209A99993E16
:100FD00000000000CC2200209C2200200000704273
:100FE00028210020DB0FC940F421002064210020CB
:100FF00010B50C21104804F0CBF80F4940F66E7084
:101000000968086400210C4804F0C2F800210A486D
:1010100003F01EFD0421084804F0BAF80421064834
:1010200003F016FD0821044804F0B2F8BDE81040B2
:101030000821014803F00CBD3C04002010B500213C
:101040000C4804F02FF900210A4803F067FD042141
:10105000084804F027F90421064803F05FFD082141
:10106000044804F01FF9BDE810400821014803F0CE
:1010700055BD00003C040020D0ED011A90ED021A8D
:1010800090ED000A71EEC10AF4EEC00AF1EE10FA1A
:1010900006DC71EE810AF4EEC00AF1EE10FA02D21B
:1010A000C0ED010A704780ED010A7047F8B50026CF
:1010B0000446009690F858000D4601280BD00120F8
:1010C00084F858002046FFF711FC0100E06D04D0C1
:1010D00040F010002AE00220F8BD20F4885040F0D3
:1010E0000200E06520688268134B1A4005F08043D7
:1010F0001A4342F000428260104A20680EE0009BD2
:101100005B1C0093934209D3E06D20F0020040F095
:101110001000E06584F858600120F8BD8368DB0F9B
:10112000EDD1E06D20F0020040F00100E06584F8B0
:1011300058600846F8BD0000C0FFFF3F02DE040013
:10114000704700002DE9F84F4FF000090446CDF834
:1011500000900D4694F85820DFF8EC8361694F4603
:101160004846012A0AD00126F84A84F8586041B15D
:10117000296A012905D0A36EEBB129E00220BDE860
:10118000F88F6868092838D1A96A4FF4785041B1BE
:101190002B6801F07C0100EA53400843E96A0843E8
:1011A00002E0296800EA51402168CB6C13400343F8
:1011B000CB64606621E0C4E91971A96A286A31B17B
:1011C00001F07C01401E0843E96A084300E0401E2C
:1011D00029682B79C1F3846103F01F03994001430F
:1011E000A06E401EA066636E43EA0103636604D1ED
:1011F0002168C86C10401843C864206805F0A2F943
:1012000058B995F8250098B12068C16895F826204E
:1012100021F4401141EA4251C160206805F09AF979
:101220008246206805F08EF95AEA00000DD0FBE0F6
:1012300095F8260095F82410400540EA01512068F1
:10124000C26822F440121143E6E7A86A30B1E86AA6
:1012500020B195F8250001285ED003E095F825001F
:10126000012804D02068C16821F0007103E02068E3
:10127000C16841F00071C16095F83000012852D07A
:101280002068016921F002010161AA6829682068CB
:10129000B2F1004F38D005F078F92068416921F0AB
:1012A0000041416120686969C268C2F3C10252000D
:1012B00091402A69042A44D000EB82002B68026E18
:1012C000DFF88CC203F0F84302EA0C020B431A4326
:1012D00042F00041016622682869A96902EB80009A
:1012E000026E22F080720A430266297F2268286912
:1012F000012923D05FF0000102EB8000026E22F092
:1013000000720A4302668FE0002205F03EF9206871
:10131000416941F00041C4E7E06D40F02000E06524
:101320004FF00109A8E7D5E90D10014320680269D3
:1013300022F4FF7242F002021143A5E74FF0007160
:10134000DAE7002105F0F4F8400320684FF00001CF
:1013500072D005F0EDF890FAA0F0B0FA80F12868AC
:1013600042036ED090FAA0F0B0FA80F0814204D12E
:1013700000221146206805F01FF90121206805F0C0
:10138000D7F8400320684FF001015DD005F0D0F898
:1013900090FAA0F0B0FA80F029684A0359D091FA87
:1013A000A1F1B1FA81F1884204D100220121206823
:1013B00005F002F90221206805F0BAF84003206820
:1013C0004FF0020148D005F0B3F890FAA0F0B0FA5F
:1013D00080F029684A0344D091FAA1F1B1FA81F171
:1013E000884204D100220221206805F0E5F803219B
:1013F000206805F09DF8400320684FF0030133D0CA
:1014000005F096F890FAA0F0B0FA80F029684A0347
:101410002FD091FAA1F1B1FA81F1884204D10022D2
:101420000321206805F0C8F82068816811F0010FD9
:1014300022D0B6E000E004E005F07AF8C0F3846161
:101440008DE7C0F3846091E705F072F8C0F3846023
:10145000A2E7C1F38461A6E705F06AF8C0F38460EF
:10146000B7E7C1F38461BBE705F062F8C0F38460BD
:10147000CCE7C1F38461D0E72B7B296850F8B02F0B
:10148000C1F3120C22EA0C0203F0180C314B23FAC0
:101490000CF30B401A430260E96841457ED128688D
:1014A00041031BD090FAA0F1B1FA81F1491C01F07F
:1014B0001F0109294FEA403131D8002911D090FA93
:1014C000A0F1B1FA81F100BF01F1010101F01F01AA
:1014D00006FA01F608D1C0F3846109E0C0F3846123
:1014E000E4E7C0F38461EFE790FAA0F1B1FA81F18B
:1014F00001F1010101F01F0146EA816102D1C0F34F
:10150000846003E090FAA0F0B0FA80F000F10100EE
:1015100000F01F0000EB400041EA00513BE00029D1
:101520000ED090FAA0F1B1FA81F100BF01F10101F2
:1015300001F01F0106FA01F60ED1C0F384610FE03D
:10154000C0F38461F2E7000000007F400040100417
:1015500000F0FF03FFFF070090FAA0F1B1FA81F15C
:1015600001F1010101F01F0146EA816102D1C0F3DE
:10157000846003E090FAA0F0B0FA80F000F101007E
:1015800000F01F00394A00EB400002EB005041EA36
:10159000000141F00071AA68206800E001E004F059
:1015A000F4FF33482B6803425CD022684FF0A04C14
:1015B000304D3148314E624501D0AA4201D1014639
:1015C00000E031468968DFF8B88001F0E0714345FA
:1015D00003D0DFF8B080434520D15FEA01281DD455
:1015E000624505D0284B9A423CD1AA4200D03046F1
:1015F00041F40001826822F0E0720A4382602348CD
:1016000023490068B0FBF1F0801C00EB4000800033
:1016100000E0401E00900028FBD123E0DFF874803A
:1016200043450DD15FEAC1180AD4AA421AD01A4B19
:101630009A4217D0624500D0304641F080710CE0EC
:10164000DFF8588043450DD14B020BD4AA4209D094
:10165000624500D0304641F48001826822F0E07299
:101660000A43826084F85870484688E5000020FEEE
:1016700000000880000100500003005000070050E7
:10168000000021C31000C09000060050840000201C
:10169000400D0300000052C700050050000084CB3D
:1016A000704700002DE9F041044600684FF0A04566
:1016B0003E4FA84201D0B84201D13D4900E03D492A
:1016C000896801F01F0604F03DFF08BB2068C1686F
:1016D000C06C01F0004100F4C070084312D094F8CF
:1016E0005800012814D0012084F858002046FFF744
:1016F00035F901004FF000020CD084F8582008465C
:10170000BDE8F081E06D40F02000E0650120F7E7E2
:101710000220F5E7E06DC00504D5206E20F008003A
:10172000206600E02266E06D42F20103984340F437
:101730008050E0652068204BDFF880C0B84201D1BE
:10174000AE4604E0984201D1E64600E08646864572
:1017500000D02EB9D4F85CE02EF4801EC4F85CE012
:101760004FF0600EC0F800E084F858202068B842BE
:1017700004D0984201D1654600E00546854209D073
:1017800046B1062E06D0072E04D0E06D40F480103E
:10179000E065B4E7C26812F0007FB0D18268084B00
:1017A0001A4042F008028260A9E7000000010050E0
:1017B00000030050000700500005005000040050D6
:1017C000C0FFFF7F2DE9F041044600684FF0A045BF
:1017D0004C4FA84201D0B84201D14B4900E04B49DF
:1017E000896801F01F0604F0ADFE08BB2068C168DF
:1017F000C06C01F0004100F4C070084312D094F8AE
:101800005800012814D0012084F858002046FFF722
:10181000A5F801004FF000020CD084F858200846CB
:10182000BDE8F081E06D40F02000E0650120F7E7C1
:101830000220F5E7E06DC00504D5206E20F0080019
:10184000206600E02266E06D42F20103984340F416
:101850008050E06520682E4BDFF8B8C0B84201D157
:10186000AE4604E0984201D1E64600E08646864551
:1018700000D02EB9D4F85CE02EF4801EC4F85CE0F1
:101880004FF0600EC0F800E084F858202068C2686D
:10189000920203D5426842F480624260A06908283F
:1018A0002068426807D022F0400242602068426807
:1018B00042F0200206E022F02002426020684268E6
:1018C00042F0400242602068B84204D0984201D100
:1018D000654600E00546854209D046B1062E06D091
:1018E000072E04D0E06D40F48010E06597E7C268F1
:1018F00012F0007F93D18268074B1A4042F0080231
:1019000082608CE700010050000300500007005087
:101910000005005000040050C0FFFF7F7047704773
:101920002DE9F04F044690F858009BB00F464FF059
:10193000000B012812D0012084F8580000261796C9
:10194000189620684FF0A048DFF81891DFF818A12A
:10195000464D404506D12846009508E002201BB0C0
:10196000BDE8F08F484515D15046CDF800A004F0F1
:10197000F1FD0090206804F0EDFD0099084311D0BE
:10198000E06D40F02000E0654FF0010B84F85860F6
:101990005846E4E7E06D40F02000E06584F85860C8
:1019A0000120DCE720684146884201D0A84201D1ED
:1019B0002F4800E02F48D7F800C02F4B40F61F7289
:1019C000BCF1000F2DD0D0F808C094F838802CF46A
:1019D000604C4CEA483CD7F804804CEA080CC0F84C
:1019E00008C0D4F800C08C4501D0AC4504D189684A
:1019F000AB6801F0010109E0D9F80810DAF80850E5
:101A000001F0010105F001059B68294303F0010382
:101A10001943BBD1BB6839681943836893431943A1
:101A20001DE0876827F46047876027688F4201D0F0
:101A3000AF4204D18968AB6801F0010109E0D9F82F
:101A40000810DAF8085001F0010105F001059B6863
:101A5000294303F00103194398D1816891438160C0
:101A600094E7000000040050000500500001005001
:101A70000003005000070050000600502DE9F84F09
:101A800000270446009790F85800DFF814840D46AC
:101A9000B946012811D0012684F85860206804F066
:101AA00055FD60B1E06D40F02000E0655FF001079A
:101AB00084F858903846BDE8F88F0220FBE7D5E956
:101AC00000210C23206803EA91131844036B01F0F2
:101AD0001F014FF01F0C0CFA01FCC2F3846223EAD1
:101AE0000C038A4013430363206804F02FFD8246F1
:101AF000206804F023FD5AEA00003CD1AA68296856
:101B00002068B2F1004F37D004F030FD2068416901
:101B100021F00041416120686969C268C2F3C102D5
:101B2000520091402A69042A31D000EB82002B68D0
:101B3000026EDFF870C303F0F84302EA0C020B43B5
:101B40001A4342F00041016620682A69A96900EB46
:101B50008200026E22F080720A430266297F2068AA
:101B60002A69012910D0002100EB8200026E22F0C8
:101B700000720A4302667DE0002204F0F7FC206850
:101B8000416941F00041C5E74FF00071ECE70021E9
:101B900004F0C8FC400320684FF0000172D004F04C
:101BA000C1FC90FAA0F0B0FA80F1286842036ED030
:101BB00090FAA0F0B0FA80F0814204D100221146E0
:101BC000206804F0F1FC0121206804F0ABFC400324
:101BD00020684FF001015DD004F0A4FC90FAA0F061
:101BE000B0FA80F12868420359D090FAA0F0B0FA18
:101BF00080F0814204D100220121206804F0D4FC4D
:101C00000221206804F08EFC400320684FF002019E
:101C100048D004F087FC90FAA0F0B0FA80F1286870
:101C2000420344D090FAA0F0B0FA80F0814204D18F
:101C300000220221206804F0B7FC0321206804F090
:101C400071FC400320684FF0030133D004F06AFCBC
:101C500090FAA0F0B0FA80F1286842032FD090FAF1
:101C6000A0F0B0FA80F0814204D100220321206864
:101C700004F09AFC2068816811F0010F22D0ABE0DB
:101C800000E004E004F04EFCC0F384618DE7C0F393
:101C9000846091E704F046FCC0F38461A2E7C0F3DE
:101CA0008460A6E704F03EFCC0F38461B7E7C0F3AC
:101CB0008460BBE704F036FCC0F38461CCE7C0F37A
:101CC0008460D0E72A7B296850F8B03FC1F3120C3A
:101CD00023EA0C0302F0180C734A22FA0CF20A40B1
:101CE00013430360E968414576D1286841031BD05E
:101CF00090FAA0F1B1FA81F1491C01F01F01092904
:101D00004FEA403131D8002911D090FAA0F1B1FA50
:101D100081F100BF01F1010101F01F0106FA01F696
:101D200008D1C0F3846109E0C0F38461E4E7C0F343
:101D30008461EFE790FAA0F1B1FA81F101F10101BC
:101D400001F01F0146EA816102D1C0F3846003E023
:101D500090FAA0F0B0FA80F000F1010000F01F004E
:101D600000EB400041EA005132E000290ED090FA29
:101D7000A0F1B1FA81F100BF01F1010101F01F01F1
:101D800006FA01F605D1C0F3846106E0C0F3846170
:101D9000F2E790FAA0F1B1FA81F101F1010101F04D
:101DA0001F0146EA816102D1C0F3846003E090FA2A
:101DB000A0F0B0FA80F000F1010000F01F003B4AF3
:101DC00000EB400002EB005041EA000141F00071DD
:101DD000AA68206804F0CAFB35482B6803423FF428
:101DE00067AE21684FF0A04C324D3348334E614509
:101DF00001D0A94201D1024600E032469268DFF8E4
:101E0000C08002F0E072434503D0DFF8B88043455C
:101E100021D15FEA02281ED4614506D02A4B99429F
:101E20007FF446AEA94200D0304642F400018268F9
:101E300022F0E0720A438260244825490068B0FB22
:101E4000F1F0401C00EB4000800000E0401E0090DC
:101E50000028FBD12CE6DFF87C8043450DD15FEAFA
:101E6000C2180AD4A942F5D01B4B9942F2D0614561
:101E700000D0304642F080710CE0DFF860804345CE
:101E8000E8D15302E6D4A942E4D0614500D03046FF
:101E900042F48001826822F0E0720A43826007E621
:101EA00000007F4000F0FF03FFFF0700000020FE5E
:101EB000000008800001005000030050000700509F
:101EC000000021C31000C0900006005084000020D4
:101ED000400D0300000052C700050050000084CBF5
:101EE00070477047704700002DE9F84F04460068BE
:101EF000066845684FF0A048DFF89092404501D051
:101F0000484501D1A24800E0A248806800F01F07C0
:101F1000B0070ED5A8070CD5E06DC00603D4E06D60
:101F200040F40060E0652046FFF70AF921680220CE
:101F30000860DFF864B2DFF864A2700701D56807B3
:101F400003D430073FD528073DD5E06DC00603D444
:101F5000E06D40F40070E065206804F0FFFA60B3C3
:101F60002068484501D1424604E0584501D1524617
:101F700000E00246824208D03FB1052F05D0092F6C
:101F800003D0484503D1414606E0C16805E0584505
:101F900001D1514600E00146C96889040DD40168A9
:101FA00009070AD504F0D2FA58B3E06D40F01000EA
:101FB000E065206E40F0010020662046FFF790FFAC
:101FC00021680C200860B00601D5A80603D470066D
:101FD0005FD568065DD5E06DC00603D4E06D40F4C2
:101FE0000050E0652068C16C11F4C07F1AD0002158
:101FF000009104F0B3FA02462068484514D14346E4
:1020000017E02068416821F00C014160E06D20F488
:102010008070E065E06DC004CFD4E06D40F0010059
:10202000E065CAE70121E3E7584501D1534600E0E6
:102030000346834208D03FB1062F05D0072F03D0B7
:10204000484503D1414606E0C16805E0584501D145
:10205000514600E00146C968009BA3B18B0102D53F
:102060008AB18A040FD4026852060CD589020AD4B8
:1020700004F064FAF0B3E06D40F01000E065206E0B
:1020800040F0010020662046FEF730F9216860200C
:10209000086030060BD5280609D5E06D40F4803085
:1020A000E065204600F096F9216880200860F00580
:1020B0000CD5E8050AD5E06D40F40030E065204617
:1020C000FFF72CFC21684FF480700860B0050CD538
:1020D000A8050AD5E06D40F48020E0652046FFF7B2
:1020E0001EFC21684FF400700860F00631D5E80648
:1020F0002FD500E009E0E06BE8B12068EFB3404580
:1021000001D0484512D1224811E02068416821F0F1
:1021100060014160E06D20F48050E065E06DC00535
:10212000B1D4E06D40F00100E065ACE7194880688B
:1021300000F4604050B1E06D40F48060E065206ED6
:1021400040F0020020662046FFF7CCFE21681020F8
:102150000860700517D5680515D5E06D40F480401E
:10216000E065206E40F00800206621684FF4806032
:1021700008602046BDE8F84F00E001E0FFF790BAA4
:10218000C068C007D6E7BDE8F88F00000001005026
:1021900000030050000700500005005000040050EC
:1021A000F8B54FF0000604003546009602D0E06D09
:1021B00010B107E00120F8BD204600F00DF92566BA
:1021C00084F8585020688168C1F3407119B1816862
:1021D000744A1140816020688168C1F3007189B937
:1021E0008168714A114041F0805181606F487049A7
:1021F0000068B0FBF1F04000801C00E0401E009041
:102200000028FBD120688168C1F3007141B9E16DFC
:1022100041F01001E165216E41F0010121660126C6
:1022200004F094F90546E06D00F01001E06D2943DB
:1022300005D040F01000E06501263046F8BD20F4DE
:10224000807040F00200E0652068816811F0010FA5
:1022500027D14FF0A043574A984201D0904204D171
:102260009968976801F001010AE053498968534F62
:1022700001F00101BF6807F001073943504FBF6803
:1022800007F0010739430CD1984201D0904201D1A7
:102290004C4800E04C486168826822F47C120A4392
:1022A0008260E168E06B627F0843A16841EA4231E5
:1022B000084394F8241040EA0140012904D1218DFB
:1022C000424A02EB41410843E16A29B101F47871C5
:1022D000226B014342EA01002168CA683C4B1A4064
:1022E0000243CA6020680169626B21F040611143BA
:1022F0000161206804F022F905432ED1207F94F873
:102300003810800340EA41012068C26844F20203A9
:102310009A430A43C26020690028206801690AD0F4
:1023200041F480310161206850F8C01F22696FF3C9
:102330000D01114307E021F480310161206850F85C
:10234000C01F6FF30D01016094F8400001280CD00C
:102350002068016921F0010101616069012820689C
:10236000016B21F00F0111D013E0D4E911010843F2
:10237000D4E913121143084321680A6940F2FC733F
:102380009A43104340F001000861E6E7226A521EBA
:1023900011430163E06D20F0020040F00100E065B0
:1023A0004BE70000C0FFFF5FC0FFFF7F84000020FD
:1023B000400D0300000100500004005000050050D3
:1023C0000006005000030050000700500000FEFF10
:1023D0000740F0FF704700002DE9F04F9BB0064624
:1023E000142115A8FDF7D8FF54216846FDF7D4FF46
:1023F0004FF40040316800258203564F564C4FF091
:1024000003084FF080094FF4807A4FF4806BB1F1EC
:10241000A04F10D0514B99425AD10090119268466A
:1024200001F012FC08B1FEF746FC3868401C386029
:10243000012850D057E000901192684601F004FC4A
:1024400008B1FEF738FC3868401C3860012807D115
:10245000E06C40F40050E064E06C00F400501A902E
:10246000E06C40F00100E064E06C00F001001A90C4
:10247000E06C40F00200E064E06C15A900F002009E
:102480001A900720444681E831004FF0904000F058
:10249000ABFC15A941F2020081E83100304800F0A0
:1024A000A3FC314C2F4801C40520E4E8020520209C
:1024B000A4E8200E64E807052B4843E07465002279
:1024C00011461220A66200F021FE122000F010FE3C
:1024D0001BB0BDE8F08FE06C40F40050E064E06CAD
:1024E00000F400501A90E06C40F00400E064E06CEE
:1024F00000F004001A90E06C40F00100E064E06C31
:1025000015A900F001001A903720444681E83100F7
:10251000164800F069FC15A9C02081E831004FF091
:10252000904000F061FC104C0E486034143801C437
:102530002420E4E802052020A4E8200E64E8070532
:102540000948603000F07CF90028B7D0FEF7B3FBF3
:10255000B4E700000C000020001002400001005011
:102560000004004844000240B40200200008004873
:102570002DE9F047044600684FF0A0483D4F9146D2
:102580008A46404501D0B84201D13B4900E03B4971
:10259000896801F01F0503F0D9FF002868D194F87D
:1025A0005800012864D0012084F85800344920687C
:1025B000884201D1012000E00020401E28424FF057
:1025C000000605D0052D03D0092D01D0012003E020
:1025D0002046FEF7C3F918B184F85860BDE8F087CB
:1025E000E06D40F60161884340F48070E06520684A
:1025F000B84201D1414605E02249884201D1224931
:1026000000E00146814200D01DB9E06D20F4801049
:10261000E065E06DC00404D5206E20F00600206661
:1026200000E02666616D1948C862616D184808634C
:10263000616D1848486321681C20086084F8586060
:102640002068416841F0100141602068C16841F094
:102650000101C16021684B4652464031606D00F077
:1026600051F921688A680C4B1A40121D8A60B5E73F
:102670000220B3E7000100500003005000070050A3
:1026800000060050000500500004005061080008DA
:10269000E3080008C9080008C0FFFF7F10B500214B
:1026A00040B190F825300122022B05D00421C163EE
:1026B000012124E0012010BD03681C6824F00104FE
:1026C0001C6003681C6824F00E041C60836C1C688A
:1026D00024F480741C6090F84430046C03F01F03F1
:1026E00002FA03F36360D0E913345C60436D33B1E5
:1026F0001C6824F480741C60D0E916345C6080F897
:102700002520002280F82420084610BD70B590F8DE
:102710002520002401212346022A07D00422C26377
:1027200080F8251080F82430012429E0026815681B
:1027300025F0010515600268156825F00E05156085
:10274000826C156825F48075156090F84420056C3E
:1027500002F01F0201FA02F26A60D0E91325556007
:10276000426D32B1156825F480751560D0E91625E3
:10277000556080F8251080F82430816B01B18847BE
:10278000204670BDF0B4016C0C6801680D6890F8CB
:10279000442002F01F06042202FA06F3234211D05D
:1027A0006B070FD50B689B0603D40B6823F004035B
:1027B0000B6090F8441001F01F018A40016C4A60E0
:1027C000016B1DE0022303FA06F727424FF0000CCD
:1027D0004FF0010218D0AF0716D50C68A40605D437
:1027E0000C6824F00A040C6080F8252090F844104E
:1027F00001F01F018B40016C4B6080F824C0C16A5E
:1028000000291AD0F0BC08470823B340234214D053
:102810002B0712D50B6823F00E030B6090F84410C1
:10282000036C01F01F0102FA01F15960C26380F8E4
:10283000252080F824C0416BE2E7F0BC704700001F
:1028400070B504000CD02C4A21681420914209D2A2
:102850002A4A0A44B2FBF0F08000606428480AE08B
:10286000012070BD244A52420A44B2FBF0F08000BD
:102870006064214808382064022084F825000A6832
:1028800047F6F0708243D4E902031843D4E90435D3
:102890002B431843A3691843E3691843236A184379
:1028A000104308602046FEF757F9A0680025B0F5F0
:1028B000804F00D165602079A16C00F07F00086036
:1028C000D4E9130141606068401E032808D82046FF
:1028D000FEF766F9606D0560D4E91601416002E01B
:1028E0006565A565E565E563012084F8250084F844
:1028F0002450002070BD000008040240F8FFFDBF16
:102900000000024070B5044690F82400002501281C
:102910000CD0012084F8240094F825600020012EBA
:1029200006D084F824000225284670BD022070BD20
:10293000022684F82560E0632068066826F0010618
:1029400006602046FEF740F9206B002820680168E9
:1029500002D041F00E0106E021F004010160206880
:10296000016841F00A010160A06C0168C90303D548
:10297000016841F480710160606D18B1016841F433
:10298000807101602068016841F001010160CBE7BE
:1029900070B5044600F054FB0546601C02D00448A4
:1029A0004068044400F04CFB401BA042FAD370BDC9
:1029B000780000207047704770472DE9F05F0446AB
:1029C0000068016D426D01F4E05102EA0108016DF9
:1029D000426D01F0070102EA0109016D426D01F04B
:1029E000380102EA010A016D476D01F471010F40DF
:1029F000016D426D01F46021456D02EA010B016D2C
:102A0000CE43710607D4E943490604D44021016549
:102A10002046FFF7D1FFF0050ED4E843C0050BD4E4
:102A20002068D0F8D820D0F8E01011404FF4807220
:102A30000265204600F0D4F95FEA080005D021685D
:102A400008654146204600F0CDF95FEA090005D04F
:102A5000216808654946204600F0BEF95FEA0A0091
:102A600005D0216808655146204600F0B6F9B0054A
:102A700009D4E843800506D421684FF40070086546
:102A8000204600F0B0F930060DD4E84300060AD421
:102A90002068D0F8D420D0F8DC10114080220265E4
:102AA000204600F09EF9B00409D4E843800406D41F
:102AB00021684FF400500865204600F090F930047A
:102AC00009D4E843000406D421684FF400400865A7
:102AD000204600F083F970040AD4E843400407D488
:102AE00021684FF480400865206E40F08000206629
:102AF0005FEA0B0005D02168086559462046FFF7BC
:102B00005AFF27B120680765206E38432066206E83
:102B1000002802D02046FFF74DFFBDE8F09F0000DF
:102B20002DE9F041040006D0DFF8F48194F85C0050
:102B3000002518B107E00120BDE8F08184F85D5060
:102B4000204600F0F9F82068816921F010018161C8
:102B500000F076FA0646032705E000BF00F070FAA1
:102B6000801B0A2811D8206880690007F6D42068E5
:102B7000816941F00101816100F062FA06460BE0D3
:102B800000F05EFA801B0A2806D9206E40F0010092
:102B9000206684F85C70CEE720688069C007EFD0BB
:102BA0002068816941F0020181612168414502D1BB
:102BB0005C4960680860207C01282068816937D002
:102BC00041F040018161607C01282068816932D038
:102BD00021F480418161A07C0128206881692DD089
:102BE00041F48051816120688169A26821F44071BB
:102BF000114381612068816921F0A401816120680D
:102C0000016921F010010161E068012819D010B3B9
:102C100002281BD02068816941F080018161206811
:102C2000016941F010010161E06803280ED012E053
:102C300021F04001C6E741F48041CBE721F4805107
:102C4000D0E72068816941F0040103E020688169D0
:102C500041F020018161207EE26940066FF0FF01B2
:102C600001EB0222A0F100701043226AA38A521ED7
:102C700010430A0202EB034318432368D861A0689B
:102C8000B0F5407F10D1D4E90A0301EB0321401EC7
:102C90000843216B131303EB01110843A18C02EBD2
:102CA000014108432168C860206850F8C01FE26BEA
:102CB000114301601D4A21681B48914200D11C4804
:102CC0001C4A914201D100F5D460206451F8802F54
:102CD000A38E22F4F81242EA03420A6000F1700166
:102CE0006164216851F8802F94F8383022F07062C6
:102CF00042EA03620A6000F1B001A164D831E164E4
:102D0000D831216518316165D83100E020C0884292
:102D1000FCD3A5652566012084F85C0000200BE744
:102D2000006400400065004000A4004000680040CE
:102D300050A70040006C004010B59CB00446142120
:102D400015A8FDF729FB54216846FDF725FB1F490F
:102D50002068884238D18014009040030E90684665
:102D600000F072FF08B1FDF7A6FF1948816D41F030
:102D700000718165816D01F000711A91C16C41F0A3
:102D80000201C164C06C15A900F002001A904FF452
:102D9000407015900220169000201790189009207E
:102DA00019900C4800F020F800221146152000F080
:102DB000ADF9152000F09CF900221146162000F014
:102DC000A5F9162000F094F91CB010BD0064004075
:102DD0000010024000040048704770477047704779
:102DE00070477047704770472DE9F04FDFF80C923D
:102DF000002301260325A9F1040B85B00F2709F153
:102E0000040AABF1040EF1E006FA03FC12EA0C022C
:102E10007ED00C7904F00304012C01D0022C20D1C7
:102E2000846800945C0005FA04F80494009C24EA89
:102E300008040094D1F80C80049C08FA04F8009C63
:102E400048EA0408C0F80880446824EA0C0491F8B1
:102E500004C0CCF3001C0CFA03FC4CEA040CC0F8D0
:102E600004C00C79E443A40702D18C68012C0ED075
:102E7000C4684FEA430805FA08FC24EA0C04D1F8B8
:102E800008C00CFA08FC4CEA040CC0F80CC00C7921
:102E900004F00304022C16D1DC0800EB840CCDF8FE
:102EA00008C0DCF820C05C074FEAD46807FA08F4D1
:102EB0002CEA040C0C6904FA08F444EA0C04DDF86A
:102EC00008C0CCF8204004684FEA430805FA08FC23
:102ED00024EA0C0491F804C00CF0030C0CFA08FC72
:102EE0004CEA040CC0F800C04C6814F4403F7CD09D
:102EF000434CD4F860C04CF0010CC4F860C0246EA0
:102F000023F0030C04F0010400943E4C644400E000
:102F10006BE00294A4684FEA837C4FEA1C7807FABE
:102F200008FC24EA0C04B0F1904F06D0DFF8D8C0BA
:102F3000604505D14FF0010C20E04FF0000C1DE082
:102F4000DFF8C8C0604502D14FF0020C16E0DFF890
:102F5000C0C0604502D14FF0030C0FE0DFF8B4C0F1
:102F6000604502D14FF0040C08E0DFF8ACC06045CA
:102F700002D14FF0050C01E04FF0060C0CFA08FCF2
:102F80004CEA040C029CC4F808C0D9F80040CC46B6
:102F9000D1F8048094435FEAC82800D51443CCF8E4
:102FA0000040DAF80040D446D1F8048094435FEA48
:102FB000882800D51443CCF80040DBF80040DC46FC
:102FC000D1F8048094435FEA883800D51443CCF8E4
:102FD0000040DEF80040F446D1F8048094435FEAF4
:102FE000C83800D51443CCF800405B1C0C6822465E
:102FF000DC407FF409AF05B0BDE8F08F0804014064
:103000000010024000000140000400480008004891
:10301000000C0048001000480014004800690840F7
:1030200000D001207047426921EA02030A4043EAC6
:103030000241816170470AB18161704781627047C6
:1030400001488068704700007800002002488168CD
:1030500042681144816070477800002010B5002458
:10306000032000F073F80F2000F008F808B10124E5
:1030700001E000F025F8204610BD000070B50E4EAE
:1030800005460024706898B14FF47A71B1FBF0F0F6
:103090000A490968B1FBF0F001F00FFC40B9102DAE
:1030A00006D200222946501E00F030F8356000E0BC
:1030B0000124204670BD000078000020840000201C
:1030C0000A4882B0016E41F001010166016E01F013
:1030D00001010091816D41F080518165806D00F0AA
:1030E0008050009002B000F0A7BD00000010024028
:1030F000002809DB00F01F020121914040098000F7
:1031000000F1E020C0F8001170470000F0B40E4B51
:103110001B680C46C3F30223C3F10705042D00D935
:103120000425191D072901D2002300E0DB1E01261A
:1031300006FA05F1491E214099409E40761E164030
:103140003143F0BC06F0B1BE0CED00E0064900F0E2
:10315000070208684FF6FF03184040EA0220034ABE
:1031600010430860704700000CED00E00000FA0515
:1031700001220168C0F8D022002280F8C82231F86C
:10318000540F40F001000880088840F002000880D9
:103190001046704770B50F4D044669B101290AD138
:1031A000D4F8D80205F09BFE607A002803D0286886
:1031B00040F00600286070BD607A28B104F080FA03
:1031C000286820F006002860D4F8D802BDE87040D6
:1031D00005F01DBE10ED00E010B50C0607D501F09E
:1031E000070101EB810100EBC100103005E001EBAC
:1031F000810100EBC10000F5A87099B232B1012243
:1032000002730181190C4181002010BD002202735C
:10321000C180F9E701EB810200EBC202D0F8D802CD
:10322000526A05F0D2BC01EB810200EBC202D0F879
:10323000D802D2F8642105F01CBD70B504460B0617
:1032400001F0070000EB800104EBC1014FF0010227
:103250004FF0000502D54A74103103E081F8515156
:1032600001F5A871087094F89002012808D084F83C
:103270009022206806F0E5F984F89052002070BD95
:10328000022070BD70B5044601F00F002279904213
:1032900001D9012070BD0B0601F0070000EB800191
:1032A00004EBC1014FF001024FF0000502D54A7452
:1032B000103103E081F8515101F5A8718D7008704B
:1032C00094F89002012808D084F89022206806F033
:1032D00057FA84F89052002070BD022070BD2DE98D
:1032E000F04704685FEA42480B788D69B4F8508073
:1032F0004FF0000C4BF68F7748F2800648F68F7936
:1033000048F2C00A444428D540F2024808EBC308FA
:1033100034F80840C4F30904A54203D32D1B8D6182
:1033200002D00BE0C1F818C0D0F800C03CF8235020
:103330003D4085F4005535432CF82350520609D5FD
:103340000B78056835F8232002EA090242EA0A02EE
:1033500025F8232074B30A8927E040F2064808EBD9
:10336000C30834F80840C4F30904A54203D32D1B55
:103370008D6102D00BE0C1F818C0D0F800C03CF855
:1033800023503D4085F4005535432CF82350520618
:1033900009D40D78036833F8252002EA090242EACD
:1033A0000A0223F825202CB14A894969006823467E
:1033B00006F001FC2046BDE8F0872DE9F05F0546E8
:1033C00000680C465FEA42681646D1F818C02278B9
:1033D000B0F8508048F6BF7A48F2800B48F68F77F5
:1033E0004CF280094FF6FF734FF4004E4FF000018E
:1033F00040447DD540F2024808EBC20830F808008E
:10340000C0F30900844514D9BCEB000CC4F818C003
:1034100010D0760408D5D5F800C03CF822603E40B4
:1034200046EA09062CF8226094F82420012A60D08C
:1034300076E1A161607810B1012813D01AE0286804
:10344000B0F85030184400EBC200B0F80224C2F3C8
:103450000902A0F80224B0F8022442F40042A0F8C5
:10346000022407E02868B0F85030184400EBC2008E
:10347000A0F802146278286812B1012A11D018E06D
:10348000B0F850100844217800EBC100B0F80614E1
:10349000C1F30901A0F80614B0F8061441F4004184
:1034A00005E0B0F850201044227800EBC200A0F8EC
:1034B0000614E07802280BD12278296831F822001E
:1034C00000EA0A0080F0200040EA0B0021F8220008
:1034D00021782846FFF79EFE700408D521782A68D7
:1034E00032F82100384040EA090022F82100C3E008
:1034F0004DE0626902446261E2690244E261266968
:10350000226AB24202D33046111A03E084F8241032
:103510000AB110462162617811B101292BD033E044
:103520002968B1F850201144227801EBC201B1F8AA
:103530000224C2F30902A1F8022401F2024158B1A7
:103540003E280ED84208C60700D0521C0E8803EA57
:10355000822216430E8017E00A8842F400420A8055
:1035600012E04209C30600D1521E0B884EEA8222A5
:1035700013430B8008E02968B1F8502011442278E9
:1035800001EBC201A1F8020483B22289C4E040F237
:10359000064808EBC20830F80800C0F3090084456B
:1035A00014D3BCEB000CC4F818C010D0760408D4B7
:1035B000D5F800C03CF822603E4046EA09062CF8E7
:1035C000226094F82420012A59D0A9E0A1616078F2
:1035D00010B1012813D01AE02868B0F85030184410
:1035E00000EBC200B0F80224C2F30902A0F80224E2
:1035F000B0F8022442F40042A0F8022407E0286850
:10360000B0F85030184400EBC200A0F80214627801
:10361000286812B1012A11D018E0B0F850100844FF
:10362000217800EBC100B0F80614C1F30901A0F83D
:103630000614B0F8061441F4004105E0B0F850203B
:103640001044227800EBC200A0F80614E0780228AB
:103650000BD121782A6832F8210000EA0A0080F0B4
:10366000200040EA0B0022F8210021782846FFF7CD
:10367000D1FD70047FF532AF0020BDE8F09F626994
:1036800002446261E2690244E2612669226AB2424E
:1036900003D33046111A216204E00AB110462162B8
:1036A00084F824106278296812B1012A2AD031E006
:1036B000B1F850201144227801EBC201B1F8062480
:1036C000C2F30902A1F8062401F2064158B13E28CE
:1036D0000ED84208C60700D0521C0E8803EA822288
:1036E00016430E8016E00A8842F400420A8011E078
:1036F0004209C30600D1521E0B884EEA82221343B0
:103700000B8007E0B1F850201144227801EBC20190
:10371000A1F80604628983B26169286806F066FA36
:103720002278296831F8220000EA0A0080F030008F
:1037300040EA0B0021F822009EE701F0070101EBAF
:10374000810100EBC100D0F86C0170472DE9F04118
:1037500004460F0601F0070000EB800104EBC101F5
:103760004FF001064FF0000502D54E74103103E012
:1037700081F8515101F5A871022B0870C2F30A00BB
:103780000861CB7000D10D7194F89002012809D026
:1037900084F89062206805F09FFD284684F89052D6
:1037A000BDE8F0810220FBE710B501F0070404EB4F
:1037B000840100EBC101C1E959230022C1F86C2149
:1037C00081F8512181F85041006801F5A87106F097
:1037D00029F8002010BD70B5044601F007002279D9
:1037E000904201D9012070BD0B064FF000054FF04B
:1037F000010206D500EB800104EBC1014A741031CF
:1038000007E001EB810104EBC10181F8515101F5A1
:10381000A8718A70087094F89002012808D084F882
:103820009022206805F0E4FF84F89052002070BDDB
:10383000022070BD10B501F0070404EB840100EB19
:10384000C101C1E90923012281F834200B6300235F
:10385000CB624A7401F8104F006805F0E3FF0020C6
:1038600010BD10B50446006806F0A2F9010404D5A5
:103870002046BDE8104003F04ABB41050ED5206844
:1038800030F8441F21F480610180204600F008F9DF
:103890002046BDE81040002100F02EB9410405D5B6
:1038A000206830F8441F21F480417DE0810405D573
:1038B000206830F8441F21F4005175E0C1041FD581
:1038C000206830F8401F21F004010180206830F8A2
:1038D000401F21F00801018094F8C802012806D198
:1038E000002084F8C80201462046FFF753FC20461A
:1038F00000F0EAF8206830F8441F21F4805153E0CA
:10390000010512D5206830F8401F41F00801018000
:10391000206830F8441F21F400610180206830F8ED
:10392000401F41F0040101800AE0010629D520680A
:1039300030F8441F21F08001018094F8C80218B1CA
:10394000204600F009F910BD206830F8401F41F012
:1039500004010180206830F8401F41F00801018017
:10396000012084F8C8022068B0F854003C2101EA24
:103970009000C4F8CC022046BDE810400121FFF7BA
:1039800009BC810509D5206830F8441F21F4007175
:103990000180204600F0ACF810BDC005FCD52068C1
:1039A00030F8441F21F48071018010BD70B504000F
:1039B00004D094F89102002510B106E0012070BDFA
:1039C00084F89052204600F03FF8032084F89102DA
:1039D000206805F0CDFE002001260BE000EB800101
:1039E00004EBC1014E740874CD740D624D62401C2D
:1039F000C0B28D6221798142F0D8002012E000BF70
:103A000000EB800104EBC10181F8515181F85001B4
:103A100081F85351C1F86051C1F86451401CC0B2E3
:103A2000C1F8685121798142EAD894E8070005F08D
:103A300096FE257384F89162A07A012802D120466F
:103A4000FFF796FB002070BD10B596B004465421D8
:103A50006846FCF7A1FC1049206888421AD140143E
:103A6000009000200F90684600F0EEF808B1FDF7D6
:103A700022F90A48816D41F400018165806D0022C0
:103A800000F40000159011461420FFF73FFB1420AE
:103A9000FFF72EFB16B010BD005C00400010024086
:103AA00070B5044640790125022801D0FDF703F9DD
:103AB0002946D4F8D80205F0C4F9D4F8D802BDE8F4
:103AC000704005F077B9000010B50446407A30B177
:103AD0000648016821F00601016003F0F1FDD4F809
:103AE000D802BDE8104005F092B9000010ED00E0EA
:103AF000D0F8D80205F095B910B5044690F89002B8
:103B000001280AD0012084F890022173206806F071
:103B100066F8002084F8900210BD022010BDD0F895
:103B2000D82200F52671104605F097B910B5044665
:103B300090F8900201280CD0012084F890022068AF
:103B400006F027F8206805F003FE002084F89002B4
:103B500010BD022010BD000010B50446D0F8D802F8
:103B600005F0BDF9607A002804D00348016841F0EF
:103B70000601016010BD000010ED00E02B492C4B48
:103B80000A6832214A432B4940B1B0F5007F0868EA
:103B900029D020F4C06040F480602CE00868C0F3B5
:103BA0004120022804D051F8800F20F4807022E0D8
:103BB000D1F8800020F48070C1F88000086820F4FB
:103BC000C06040F400700860B2FBF3F0401C00E0FD
:103BD000401E4A69520501D50028F9D148694005BF
:103BE0000AD503207047C0F34120022806D051F8BF
:103BF000800F40F48070086000207047D1F880008A
:103C000040F48070C1F88000086820F4C06040F47F
:103C100000700860B2FBF3F0401C00E0401E4A69EF
:103C20005205DBD50028F9D1D8E700008400002038
:103C300040420F00007000400248816841F480411A
:103C400081607047007000402DE9F8430446006829
:103C50000026BB4D00035ED5A86D0027C00008D428
:103C6000A86D40F08050A865A86D012700F0805035
:103C70000090DFF8D092D9F8001041F48071C9F8B3
:103C80000010FFF7DDF9804606E000BFFFF7D8F926
:103C9000A0EB080002282BD8D9F80000C005F5D504
:103CA000D5F8900010F4407014D0216D814211D0ED
:103CB000D5F89000D5F8901020F4407041F4803190
:103CC000C5F89010D5F8901021F48031C5F8901007
:103CD000C5F89000C00711D0FFF7B2F9804641F255
:103CE000883907E0FFF7ACF9A0EB0801494501D995
:103CF00003260BE0D5F890008007F3D5D5F89000A7
:103D0000216D20F440700843C5F890001FB1A86DE4
:103D100020F08050A8652078C00707D0D5F888002B
:103D2000616820F003000843C5F888002078800708
:103D300007D5D5F88800A16820F00C000843C5F825
:103D400088002078400707D5D5F88800E16820F082
:103D500030000843C5F888002078000707D5D5F85B
:103D60008800216920F0C0000843C5F88800207849
:103D7000C00607D5D5F88800616920F44070084373
:103D8000C5F888002078800607D5D5F88800A16995
:103D900020F440600843C5F888002078400607D525
:103DA000D5F88800E16920F440500843C5F8880040
:103DB0002078000607D5D5F88800216A20F4404015
:103DC0000843C5F888002088C00507D5D5F88800C5
:103DD000616A20F440300843C5F8880020688003F9
:103DE00007D5D5F89C00A16A20F003000843C5F868
:103DF0009C002088800507D5D5F88800E16A20F46A
:103E000040200843C5F88800208840050FD5D5F824
:103E10008800216B20F440100843C5F88800206B0F
:103E2000B0F5801F03D1E86840F48010E860208876
:103E300000050FD5D5F88800616B20F440000843D9
:103E4000C5F88800606BB0F5800F03D1E86840F4D6
:103E50008010E8602088C0040FD5D5F88800A16BD9
:103E600020F040700843C5F88800A06BB0F1807F57
:103E700003D1E86840F48010E86020884FF00061CA
:103E800080040ED5D5F88800E26B20F04060104326
:103E9000C5F88800E06B884203D1E86840F48010E0
:103EA000E860208840040ED5D5F88800226C20F008
:103EB00040601043C5F88800206C884203D1E86850
:103EC00040F48010E860208800040FD5D5F8880001
:103ED000616C20F040500843C5F88800606CB0F178
:103EE000805F03D1E86840F48030E8602068C00358
:103EF0000FD5D5F88800A16C20F040400843C5F8E4
:103F00008800A06CB0F1804F03D1E86840F48030A5
:103F1000E860206840030FD5D5F89C00E16C20F4E0
:103F200040100843C5F89C00E06CB0F5001F03D1B9
:103F3000E86840F48010E8603046BDE8F88300008F
:103F400000100240007000402DE9F0470E460500C9
:103F50004FF0000725D0DFF8AC81D8F8000000F062
:103F60000F00B0420CD2D8F8001021F00F013143FD
:103F7000C8F80010D8F8000000F00F00B04210D1CF
:103F80002968614CC80741F2883A5AD06868DFF85E
:103F90007C91032808D0022820682DD040050028F5
:103FA0002CDB0120BDE8F08720688001F9D5E068AE
:103FB00000F00302E068C0F30310401C032A19D08C
:103FC000534A00BFB2FBF0F0E268C2F3062250434E
:103FD000E268C2F34162521C5200B0FBF2F0484565
:103FE00017D9A06810F0F00F0CD0880711D5A86879
:103FF00040B10EE0474AE5E78003D0E700F0B6F8AD
:10400000484506D9A06820F0F00040F08000A0608C
:104010008027A068696820F003000843A060FFF7CC
:104020000FF8814606E000BFFFF70AF8A0EB090190
:1040300051453AD8A068696800F00C00B0EB810FD8
:10404000F2D12868810714D5400703D5A06840F451
:10405000E060A0602878000705D5A06820F46050D3
:1040600040F4E060A060A068A96820F0F000084378
:1040700004E0802F03D1A06820F0F000A060D8F801
:104080000010404601F00F01B14216D9016821F03D
:104090000F0131430160FEF7D3FF074607E000BF81
:1040A000FEF7CEFFC11B514501D903207AE7D8F8AE
:1040B000000000F00F00B042F2D12878400705D58B
:1040C000A068E96820F4E0600843A0602878000751
:1040D00006D5A068296920F4605040EAC100A060BC
:1040E00000F044F8A1680C4AC1F30311515C01F0DF
:1040F0001F01C8400949086009480068BDE8F04749
:10410000FEF7BCBF002002400010024000B4C4040F
:104110000024F40000127A00BCA7000884000020EC
:10412000780000200548064900688968054AC1F3FF
:104130000221515C01F01F01C8407047840000203B
:1041400000100240CCA700080548064900688968AD
:10415000054AC1F3C221515C01F01F01C8407047FC
:104160008400002000100240CCA70008184910B5B8
:104170008868C0F381021748012A0BD08A6843106F
:10418000C2F38102022A06D08A68C2F38102032A9E
:1041900003D0002010BD184610BDCA6802F0030409
:1041A000CA68C2F30312521C032C02D0B0FBF2F017
:1041B00001E0B3FBF2F0CA68C968C2F306225043BB
:1041C000C1F34161491C4900B0FBF1F010BD000092
:1041D000001002400024F4002DE9F84304007AD0D6
:1041E0002078F84DC00747D0A868E96800F00C00B7
:1041F00001F003010C2802D0082817D001E00329A0
:1042000014D06068B0F5803F17D0B0F5A02F2868B3
:1042100017D020F480302860286820F4802028609F
:104220006068E0B1FEF70CFF064614E028688003E2
:1042300022D560680028D2D01EE0286840F4803083
:10424000EDE740F480202860F7E700BFFEF7F8FEB6
:10425000801B642870D828688003F7D50CE0FEF72F
:10426000EFFE064605E000BFFEF7EAFE801B64286D
:10427000F0D828688003F7D4207880074CD5A86848
:10428000E96800F00C0001F003010C2802D00428BA
:104290000DD001E002290AD0E068002828682BD060
:1042A00040F480702860FEF7CBFE064619E02868CF
:1042B000400502D5E068002891D06868217C20F094
:1042C000FE4040EA01606860BF480068FEF7D6FE25
:1042D000002800D120E072E1FEF7B2FE801B022828
:1042E000B8D828684005F7D56868217C20F0FE40E2
:1042F00040EA016068600FE020F480702860FEF7FB
:104300009FFE064605E000BFFEF79AFE801B0228CE
:10431000A0D828684005F7D42078000729D560691F
:104320000028D5F8940013D040F00100C5F894009F
:10433000FEF786FE064606E090E000BFFEF780FE30
:10434000801B022886D8D5F894008007F6D510E0A7
:1043500020F00100C5F89400FEF772FE064604E066
:10436000FEF76EFE801B022878D8D5F894008007EF
:10437000F6D42078400761D5A86D0026C00008D487
:10438000A86D40F08050A865A86D012600F080500F
:1043900000908E480168C90511D40168804641F437
:1043A00080710160FEF74CFE074604E0FEF748FE10
:1043B000C01B022852D8D8F80000C005F6D5A06866
:1043C000012815D00528D5F8900016D020F001005E
:1043D000C5F89000D5F8900020F00400C5F89000D2
:1043E000A06841F28838B8B1FEF72AFE07460EE011
:1043F000D5F8900040F00100F0E740F00400C5F867
:104400009000F5E7FEF71CFEC11B414526D8D5F804
:1044100090008007F6D50CE0FEF712FE074604E098
:10442000FEF70EFEC11B414518D8D5F89000800755
:10443000F6D41EB1A86D20F08050A86520788006C3
:1044400029D5A0690028D5F8980013D040F00100C4
:10445000C5F89800FEF7F4FD064606E075E000BFDB
:10446000FEF7EEFD801B02286FD8D5F89800800774
:10447000F6D510E020F00100C5F89800FEF7E0FD49
:10448000064604E0FEF7DCFD801B02285DD8D5F867
:1044900098008007F6D4E069F0B3A968C1F3810100
:1044A00003295DD00228286820F08070286003D09E
:1044B000FEF7C6FD04464BE0FEF7C2FD064604E0EB
:1044C000FEF7BEFD801B02283FD828688001F7D484
:1044D000F4E908016FF00F0202EB01110843218A91
:1044E0005204490802EB4151A26841EA0221084303
:1044F000217D4FF07E42490802EB41610843217B58
:1045000040EAC160E968324A11400843E86028681F
:1045100040F08070286000E05EE0E86840F0807065
:10452000E860FEF78DFD044605E000BFFEF788FD5C
:10453000001B022809D828688001F7D54CE000BF8D
:10454000FEF77EFD001B022802D90320BDE8F88398
:1045500028688001F4D4E8681E490840E8603BE020
:104560000128F3D0E868226A00F00301914226D1C5
:10457000616A00F0F0020901103991421FD1A26A6C
:1045800000F4FE41B1EB022F19D194F82C2000F079
:104590007841B1EBC26F12D1218E00F4C0024908FC
:1045A0004905A1F50011914209D194F8341000F0A9
:1045B000C06049084906A1F1007181420CD0012078
:1045C000C4E70000001002407800002000700040A6
:1045D0000C809F01FCFFEEFE0020B7E770B50400E1
:1045E00009D0606A002540B125616561A56294F833
:1045F0005D0040B10CE0012070BD6068B0F5827FC5
:10460000F4D0E561F2E784F85C50204600F05CF8F5
:10461000022084F85D002068016821F040010160FB
:10462000E1684FF4E062914201D9002001E04FF4CB
:104630008050B1F5706F02D0914200D0A562A18880
:10464000228901F4827102F404421143227C02F0B7
:1046500002021143227D02F001021143228B02F477
:1046600000721143227F02F03802114394F8202097
:1046700002F080021143228D02F40052114322689D
:104680001160A169042202EA114194F8242000F487
:10469000805002F01002114394F8342002F0080216
:1046A0001143A28902F47062114301432068416002
:1046B0002068C16921F40061C1612566012084F888
:1046C0005D00002070BD000010B586B004461421C6
:1046D0006846FBF761FE1249206888421ED11148E6
:1046E000816D41F400418165816D01F400410591C6
:1046F000C16C41F00401C164C06C694600F0040063
:1047000005904FF4A05000900220019000200290EC
:104710000390062004900448FEF766FB06B010BD27
:10472000003C004000100240000800482DE9F84F0E
:10473000984616468A460446FEF782FC814694F85F
:104740005D00012820D1BAF1000F6FD0002E6DD08E
:1047500094F85C00012817D0012784F85C700320CE
:1047600084F85D0000252566C4F838A0A687E68792
:104770002564A4F84450A4F846502565E564A06873
:10478000B0F5004F03D00CE00220BDE8F88F2068A0
:10479000016821F0400101602068016841F4804116
:1047A000016020680168490603D4016841F04001B6
:1047B0000160E068B0F5E06F606826D908B1012EAD
:1047C0001FD1A06B21680088C86006E0206881685E
:1047D000890709D5A16B0988C160A06B801CA06303
:1047E000E08F401EE0870CE0FEF72AFCA0EB0901F9
:1047F000414503D3B8F1FF3F03D04BE0B8F1000FC0
:1048000048D0E08F0028E1D139E008B1012E33D142
:10481000E08F0128A06B03D921680088C86010E0F0
:1048200021680078087314E0E08725E043E0206801
:104830008168890713D5E18F0129A16B07D9098800
:10484000C160A06B801CA063E08F801EECE709783C
:104850000173A06B401CA063E08F401EE4E7FEF7ED
:10486000EFFBA0EB0901414503D3B8F1FF3F03D0B3
:1048700010E0B8F1000F0DD0E08F0028D7D14A46E4
:104880004146204602F095FD08B120202066A06830
:1048900030B109E084F85D7084F85C50032074E75F
:1048A0002068C1688068009084F85D7004F85C5FDF
:1048B00060680028F3D0012067E710B5401EB0F112
:1048C000807F01D3012010BD4FF0E02460610F21F3
:1048D000601705F0EAFA0020A0610720206100209F
:1048E00010BD70477047704730B590F83C20012AE2
:1048F00045D0012280F83C20CA688B6822F44072BF
:104900001A434B6822F480621A430B6822F4006257
:104910001A430B6922F480521A434B6922F4005265
:104920001A430B6B22F480421A430B8B22F4702241
:1049300042EA0342CB6922F080521A43114D0368C8
:104940000024AB4205D0104DAB4202D00F4DAB421C
:1049500010D10D8D22F4700242EA05520D6A22F048
:1049600080722A434D6A22F000722A43C96A22F0FB
:1049700000520A435A6480F83C40002030BD0220B7
:1049800030BD0000002C01400034014000500140C7
:104990007047704770470000F0B590F83C20012A3E
:1049A00043D0012580F83C50022280F83D20036866
:1049B0005A689C681E4E1F4FDFF87CC0B34203D07C
:1049C000BB4201D0634504D122F4700E4A6842EA2A
:1049D0000E02DFF868E002EA0E02D1F800E04EEACB
:1049E000020EC3F804E00268B24212D0B2F1804F66
:1049F0000FD0134B9A420CD0124B9A4209D0124B53
:104A00009A4206D0BA4204D0104B9A4201D0624575
:104A100004D1896824F080031943916080F83D50E7
:104A2000002180F83C100846F0BD0220F0BD0000D7
:104A3000002C014000340140005001408FFFFFFD79
:104A40000004004000080040000C0040004001400D
:104A500010B50446022249B104290ED0082913D00A
:104A600094F84700012816D0012010BD94F84400A6
:104A70000128F9D184F844200FE094F8450001287A
:104A8000F2D184F8452008E094F846000128EBD1E3
:104A900084F8462001E084F847200422206802F0D0
:104AA000D8FE2068416C41F40041416413492068FC
:104AB000884214D0B0F1804F11D0114988420ED0F5
:104AC000104988420BD01049884208D00F498842CB
:104AD00005D00F49884202D00E49884207D181682B
:104AE0000D4A1140062906D0B1F5803F03D0016878
:104AF00041F001010160002010BD0000002C0140C8
:104B00000004004000080040000C00400034014058
:104B100000400140005001400700010070B504460C
:104B20000D460068002202F094FE2068036A1549D1
:104B300044F244420B4206D1036A134203D1436C50
:104B400023F4004343642068036A0B4206D1016AE0
:104B5000114203D1016821F00101016001203DB142
:104B6000042D08D0082D09D084F84700002070BD1E
:104B700084F84400FAE784F84500F7E784F8460033
:104B8000F4E7000011111100704710B5040003D0C4
:104B900094F83D0010B107E0012010BD002084F81A
:104BA0003C00204600F022F8022084F83D00211D40
:104BB000206802F0D3FD012084F8480084F83E000C
:104BC00084F83F0084F8400084F8410084F84200F3
:104BD00084F8430084F8440084F8450084F84600D3
:104BE00084F8470084F83D00002010BD08B5154A40
:104BF0000168154891420ED1016E41F400610166D1
:104C0000006E002200F40060009011461920FEF7AB
:104C10007DFA192010E00D4A914211D1816D41F0C9
:104C200002018165806D002200F0020000900221E7
:104C30001D20FEF76BFA1D20BDE80840FEF758BAAC
:104C400008BD0000002C014000100240000400409C
:104C500090F83D10012901D001207047022180F811
:104C60003D100168CA6842F00102CA600068134939
:104C7000884214D0B0F1804F11D0114988420ED033
:104C8000104988420BD01049884208D00F49884209
:104C900005D00F49884202D00E49884207D1816869
:104CA0000D4A1140062906D0B1F5803F03D00168B6
:104CB00041F001010160002070470000002C01401C
:104CC0000004004000080040000C00400034014097
:104CD00000400140005001400700010070B504464B
:104CE00090F83C00002501281CD0012684F83C6087
:104CF000022084F83D0022689068334B184020F46D
:104D00007F4090600868B0F5005F2ED016DC402828
:104D100049D009DCD0B1102818D0202816D030286E
:104D200049D113E0022070BD50282AD0602830D02D
:104D300070280FD0B0F5805F3DD13DE010F00F0F2F
:104D400039D10111A1F58031072934D822680146F3
:104D5000104625E0CB68D1E90121206802F086FDEC
:104D60002068816841F0770109E0CB68D1E9012131
:104D7000206802F07BFD2068816841F480418160F9
:104D80001AE0CA684968206802F054FF5021206880
:104D900006E0CA684968206802F080FF6021206848
:104DA00002F06EFD08E0CA684968206802F042FF20
:104DB00040212068F4E7012584F83D60002084F854
:104DC0003C00284670BD000088FFCEFF70472DE9EB
:104DD000F04104460068C66805694FF00007A9075E
:104DE00013D5B10711D5F91E016101202077206884
:104DF00080698007204602D0FFF7E8FF04E000F05A
:104E000001F9204600F0C3F92777680716D5700727
:104E100014D521686FF00400086102202077206813
:104E2000806910F4407F204602D0FFF7CFFF04E0F6
:104E300000F0E8F8204600F0AAF92777280715D5F2
:104E4000300713D521686FF008000861042020772F
:104E50002068C0698007204602D0FFF7B7FF04E052
:104E600000F0D0F8204600F092F92777E80616D532
:104E7000F00614D521686FF0100008610820207733
:104E80002068C06910F4407F204602D0FFF79EFFE3
:104E900004E000F0B7F8204600F079F92777E8073A
:104EA00008D0F00706D021686FF0010008612046A5
:104EB00000F054FA280601D4A80408D5300606D517
:104EC00021686FF4025008612046FFF70BFDE805EA
:104ED00008D5300606D521686FF480700861204639
:104EE000FFF7FFFC680608D5700606D521686FF04D
:104EF00040000861204600F032FAA80608D5B00646
:104F000006D521686FF0200008612046FFF7EBFC12
:104F1000E80208D5F00206D521686FF48010086118
:104F20002046FFF736FDA80208D5B00206D5216855
:104F30006FF4001008612046FFF72AFD680208D5CB
:104F4000700206D521686FF4800008612046FFF7E3
:104F500021FD28020AD5300208D521686FF400002F
:104F600008612046BDE8F041FFF70EBEBDE8F081C4
:104F7000F0B587B0044614216846FBF70DFA1E49C8
:104F80002068884236D11D48C16C41F00201C164DD
:104F9000C16C01F002010591C16C41F00101C164D5
:104FA000C06C022500F0010005904FF4C040009055
:104FB0000024CDE901540626114FCDE90346694688
:104FC0003846FDF711FFA8030090CDE901540420F5
:104FD000CDE9034069463846FDF706FF4FF4E0602F
:104FE0000090CDE90154CDE9034669464FF0904069
:104FF000FDF7FAFE07B0F0BD002C014000100240A2
:1050000000040048704770B5044690F83C00002644
:105010000D4601280BD0012084F83C000C2A4AD010
:1050200007DC82B1042A20D0082A06D131E0022010
:1050300070BD102A53D0142A63D00126002084F8B2
:105040003C00304670BD206802F024FC2068816975
:1050500041F0080181612068816921F004018161CA
:10506000206881692A69114311E0206802F06CFC14
:105070002068816941F4006181612068816921F4BF
:1050800080618161206881692A6941EA0221816128
:10509000D4E7206802F0ACFC2068C16941F0080147
:1050A000C1612068C16921F00401C1612068C16942
:1050B0002A69114311E0206802F0EEFC2068C16902
:1050C00041F40061C1612068C16921F48061C1615E
:1050D0002068C1692A6941EA0221C161AEE72068FE
:1050E00002F02EFD2068016D41F008010165206885
:1050F000016D21F0040101652068016D2A691143E9
:1051000011E0206802F058FD2068016D41F4006153
:1051100001652068016D21F4806101652068016DE1
:105120002A6941EA0221016588E710B5040003D02D
:1051300094F83D0010B107E0012010BD002084F874
:105140003C00204600F022F8022084F83D00211D9A
:10515000206802F003FB012084F8480084F83E0038
:1051600084F83F0084F8400084F8410084F842004D
:1051700084F8430084F8440084F8450084F846002D
:1051800084F8470084F83D00002010BD7047704748
:1051900070B50446022269B1042912D0082917D03B
:1051A0000C291CD0102921D094F84300012824D0C8
:1051B000012070BD94F83E000128F9D184F83E200A
:1051C0001DE094F83F000128F2D184F83F2016E05A
:1051D00094F840000128EBD184F840200FE094F8C7
:1051E00041000128E4D184F8412008E094F842000D
:1051F0000128DDD184F8422001E084F84320012217
:10520000206802F019FB1D4920681D4A1D4B1E4DE8
:1052100088420BD0904209D0984207D01B4EB04232
:1052200004D01B4EB04201D0A84203D1466C46F4D4
:10523000004646642068884211D0B0F1804F0ED0FD
:10524000144988420BD01449884208D01349884237
:1052500005D0904203D0984201D0A84207D181687E
:105260000F4A1140062906D0B1F5803F03D00168EE
:1052700041F001010160002070BD0000002C0140E0
:105280000034014000400140005001400044014012
:10529000004801400004004000080040000C0040AD
:1052A0000700010030B504460D460068002202F0F8
:1052B000C3FA2449224B20688A1198420ED0224B0F
:1052C00098420BD0214B984208D0214B984205D0F0
:1052D000204B984202D0204B984209D1036A0B42DE
:1052E00006D1036A134203D1436C23F400434364A1
:1052F0002068036A0B4206D1016A114203D101689A
:1053000021F00101016001205DB1042D0CD0082DB8
:105310000DD00C2D0ED0102D0FD084F8430000209E
:1053200030BD84F83E00FAE784F83F00F7E784F8E0
:105330004000F4E784F84100F1E784F84200EEE72A
:10534000002C0140111111000034014000400140C7
:105350000044014000480140005001407047704740
:1053600090F88410012918D0012180F8841024219C
:10537000C0F8881001680A680B6823F001030B600D
:1053800022F0005100224266036819602021C0F813
:10539000881080F8842010467047022070477047BC
:1053A000704770B5044690F8840001281DD0012094
:1053B00084F884002420C4F8880020680568026806
:1053C00022F0010202602068826822F060620A43D3
:1053D0008260204602F022FE206805602020C4F88A
:1053E0008800002084F8840070BD022070BD70B574
:1053F000044690F8840001281DD0012084F8840020
:105400002420C4F8880020680568026822F00102A0
:1054100002602068826822F060420A43826020466F
:1054200002F0FCFD206805602020C4F88800002000
:1054300084F8840070BD022070BD704770477047CB
:105440002DE9F04103680446D86919689A6840F666
:105450000F0528424FF000054FF002060AD18706DB
:105460007ED501F0200702F0805C57EA0C0777D068
:10547000616F42E1B64FDFF8DCC2174001EA0C0C65
:1054800057EA0C0C6CD05FEAC07C0CD05FEAC15CC0
:1054900009D54FF0010CC3F820C0D4F8903043F088
:1054A0000103C4F89030830709D5D30707D02368D8
:1054B0001E62D4F8903043F00403C4F890304307E0
:1054C0000AD5D30708D0266804233362D4F8903075
:1054D00043F00203C4F8903003070CD501F0200319
:1054E0003B4308D0266808233362D4F8903043F059
:1054F0000803C4F8903003050BD54B0109D5266885
:105500004FF400633362D4F8903043F02003C4F8C2
:105510009030D4F89030002B3DD0800609D501F0B2
:10552000200002F08051084303D0616F09B120468A
:105530008847D4F8900021688968490602D410F0A1
:10554000280F2AD0204602F04BFE206880684006D3
:105550001ED52068083050E8001F21F0400100E00F
:1055600021E040E80012002AF3D1D4F8800078B19D
:1055700079498163D4F88000FDF7C8F800280AD083
:10558000D4F88000816B00E02046BDE8F041084778
:105590002046FFF754FFBDE8F0812046FFF74FFF9C
:1055A000C4F89050F7E7D4F86CC02027BCF1010F85
:1055B0007ED15FEAC06C7BD55FEAC16C78D51020E4
:1055C000186220688068400651D5D4F880100A68B7
:1055D00050680004000C3ED0B4F85C3083423AD9E5
:1055E000A4F85E000868006880062CD4216851E8A1
:1055F000000F20F4807041E80002002AF6D12068F4
:10560000083050E8001F21F0010140E80012002A94
:10561000F5D12068083050E8001F21F0400140E833
:105620000012002AF5D1C4F88C70E566216851E8B3
:10563000000F20F0100041E80002002AF6D1D4F853
:105640008000FDF72BF82667B4F85C00B4F85E1014
:10565000401A81B207E0B4F85C1081429BD1106817
:10566000800698D526672046FFF799FE93E7B4F8A1
:105670005C00B4F85E10401A81B2B4F85E000028F5
:1056800089D0002987D0226852E8000F20F490705A
:1056900042E80003002BF6D12D4BDB432068083095
:1056A00050E8002F1A4040E8002CBCF1000F00E049
:1056B0000EE0F3D1C4F88C70E5666567206850E8A9
:1056C000002F22F0100240E80023002BF6D1C9E79A
:1056D000C60209D5560207D54FF48010186220463D
:1056E000BDE8F041FFF7AABE03060AD501F080032A
:1056F00002F40002134304D0A16F00297FF444AFE9
:1057000049E7420611D54A060FD52046016851E8FF
:10571000002F22F0400241E80023002BF6D1C0F810
:105720008870856700F0CAF835E7020206D54A009E
:1057300004D52046BDE8F041FFF77FBEC00195D5F6
:10574000002993DA2046BDE8F041FFF729BE0000AA
:105750000100001020010004D581000810B50400EC
:1057600003D0D4F8880010B107E0012010BD00205C
:1057700084F88400204600F027F82420C4F888002C
:105780002068016821F001010160A06A10B1204683
:1057900002F066FC204602F04DFD0128E6D02068AC
:1057A000416821F4904141602068816821F02A011C
:1057B00081602068016841F0010101602046BDE878
:1057C000104002F0B1BC0000F0B59BB006461421B9
:1057D00015A8FAF7E1FD54216846FAF7DDFD3249D4
:1057E000306888425DD1042000240090039468460C
:1057F000FEF72AFA08B1FBF75EFA2C48816D41F4F6
:1058000080218165816D01F480211A91C16C41F084
:105810000201C164C06C15A900F002001A904FF497
:10582000406015900220CDE916040720CDE918400C
:105830001F48FDF7D9FA204D1E48802728601C20FC
:10584000C5E90104C5E903476C61AC61EC61284618
:105850002C62FCF7F5FF08B1FBF72DFAC6F8805073
:10586000AE62154D13486035143028601D20686005
:1058700005F10801102081E891006C61AC61EC61D8
:1058800028462C62FCF7DCFF08B1FBF714FAF56739
:10589000002211462720AE62FDF738FC2720FDF7D5
:1058A00027FC1BB0F0BD0000004800400010024083
:1058B000000400480800024068050020704700000E
:1058C0001F4810B590ED000AD0ED010A1B4C20EEE8
:1058D000000A00EEA00A04F069FC1A481A4AD0ED4A
:1058E000060AC4ED000A84ED010A92F84910022963
:1058F00021D004291FD092ED0D0A00BF134884ED7A
:10590000020A002190ED030A84ED030A90ED040AD7
:105910000F4884ED040A90ED040A084884ED050A56
:1059200001764176802181767F21C176BDE81040E5
:105930001C21FBF7CFB890ED0D0ADFE7F41F002024
:10594000D0010020FC2200200C2200207821002021
:10595000F4210020FEE790ED031AD0ED060A90ED49
:10596000040AD0ED051A21EE202A00EE612A20EE6D
:10597000200A01EE210A80ED002A80ED010A70471D
:1059800070B52F482F4C00F128062DED048B90EDBB
:10599000010A9FED2A9A84ED000A96ED030A20463B
:1059A00084ED010A01F07DFC94ED030ADFED268A07
:1059B0009FED268A264D60EE280A94ED020A2548BE
:1059C000F3EE081A40EE080AC4ED030AC5ED000A1A
:1059D00090ED041A81EE210A20EE000A00EEE00AA2
:1059E000B5EEC00AF1EE10FA02DD04F0DFFB01E0D3
:1059F000B0EE490A184C124884ED060AB1EE400A8E
:105A0000143884ED070A90ED010A204684ED000A5F
:105A100096ED040A84ED010A01F043FC94ED030ABB
:105A2000D4ED020A20EE280A00EE880A84ED030A6B
:105A300085ED010ABDEC048B70BD00000000000084
:105A4000502100209C2200206666663FCDCCCC3DD4
:105A50000C220020F4210020CC220020F0B50023ED
:105A60000A24302537261F4611E000BFB4EB107F13
:105A700002D905EB107C01E006EB107C01F813C0A5
:105A800001EB430C00015B1C8CF80170DBB293420C
:105A9000ECD3F0BDF0B41C481C49002702782AB1B1
:105AA00081F8497081F84420F0BC7047184DDFF848
:105AB00064C0D5E90132EC68634502DC164EB3429E
:105AC00001D901220AE0624501DCB24201D9022279
:105AD00004E0644501DCB44201D90322027003787A
